{
  "_format": "hh-sol-artifact-1",
  "contractName": "MyToken",
  "sourceName": "contracts/tliydf.sol",
  "abi": [
    {
      "inputs": [],
      "stateMutability": "nonpayable",
      "type": "constructor"
    },
    {
      "anonymous": false,
      "inputs": [
        {
          "indexed": true,
          "internalType": "address",
          "name": "owner",
          "type": "address"
        },
        {
          "indexed": true,
          "internalType": "address",
          "name": "spender",
          "type": "address"
        },
        {
          "indexed": false,
          "internalType": "uint256",
          "name": "value",
          "type": "uint256"
        }
      ],
      "name": "Approval",
      "type": "event"
    },
    {
      "anonymous": false,
      "inputs": [
        {
          "indexed": true,
          "internalType": "address",
          "name": "previousOwner",
          "type": "address"
        },
        {
          "indexed": true,
          "internalType": "address",
          "name": "newOwner",
          "type": "address"
        }
      ],
      "name": "OwnershipTransferred",
      "type": "event"
    },
    {
      "anonymous": false,
      "inputs": [
        {
          "indexed": false,
          "internalType": "address",
          "name": "account",
          "type": "address"
        }
      ],
      "name": "Paused",
      "type": "event"
    },
    {
      "anonymous": false,
      "inputs": [
        {
          "indexed": true,
          "internalType": "address",
          "name": "from",
          "type": "address"
        },
        {
          "indexed": true,
          "internalType": "address",
          "name": "to",
          "type": "address"
        },
        {
          "indexed": false,
          "internalType": "uint256",
          "name": "value",
          "type": "uint256"
        }
      ],
      "name": "Transfer",
      "type": "event"
    },
    {
      "anonymous": false,
      "inputs": [
        {
          "indexed": false,
          "internalType": "address",
          "name": "account",
          "type": "address"
        }
      ],
      "name": "Unpaused",
      "type": "event"
    },
    {
      "inputs": [
        {
          "internalType": "address",
          "name": "owner",
          "type": "address"
        },
        {
          "internalType": "address",
          "name": "spender",
          "type": "address"
        }
      ],
      "name": "allowance",
      "outputs": [
        {
          "internalType": "uint256",
          "name": "",
          "type": "uint256"
        }
      ],
      "stateMutability": "view",
      "type": "function"
    },
    {
      "inputs": [
        {
          "internalType": "address",
          "name": "spender",
          "type": "address"
        },
        {
          "internalType": "uint256",
          "name": "amount",
          "type": "uint256"
        }
      ],
      "name": "approve",
      "outputs": [
        {
          "internalType": "bool",
          "name": "",
          "type": "bool"
        }
      ],
      "stateMutability": "nonpayable",
      "type": "function"
    },
    {
      "inputs": [
        {
          "internalType": "address",
          "name": "account",
          "type": "address"
        }
      ],
      "name": "balanceOf",
      "outputs": [
        {
          "internalType": "uint256",
          "name": "",
          "type": "uint256"
        }
      ],
      "stateMutability": "view",
      "type": "function"
    },
    {
      "inputs": [
        {
          "internalType": "uint256",
          "name": "amount",
          "type": "uint256"
        }
      ],
      "name": "burn",
      "outputs": [],
      "stateMutability": "nonpayable",
      "type": "function"
    },
    {
      "inputs": [
        {
          "internalType": "address",
          "name": "account",
          "type": "address"
        },
        {
          "internalType": "uint256",
          "name": "amount",
          "type": "uint256"
        }
      ],
      "name": "burnFrom",
      "outputs": [],
      "stateMutability": "nonpayable",
      "type": "function"
    },
    {
      "inputs": [],
      "name": "decimals",
      "outputs": [
        {
          "internalType": "uint8",
          "name": "",
          "type": "uint8"
        }
      ],
      "stateMutability": "view",
      "type": "function"
    },
    {
      "inputs": [
        {
          "internalType": "address",
          "name": "spender",
          "type": "address"
        },
        {
          "internalType": "uint256",
          "name": "subtractedValue",
          "type": "uint256"
        }
      ],
      "name": "decreaseAllowance",
      "outputs": [
        {
          "internalType": "bool",
          "name": "",
          "type": "bool"
        }
      ],
      "stateMutability": "nonpayable",
      "type": "function"
    },
    {
      "inputs": [
        {
          "internalType": "address",
          "name": "token",
          "type": "address"
        },
        {
          "internalType": "uint256",
          "name": "amount",
          "type": "uint256"
        }
      ],
      "name": "flashFee",
      "outputs": [
        {
          "internalType": "uint256",
          "name": "",
          "type": "uint256"
        }
      ],
      "stateMutability": "view",
      "type": "function"
    },
    {
      "inputs": [
        {
          "internalType": "contract IERC3156FlashBorrower",
          "name": "receiver",
          "type": "address"
        },
        {
          "internalType": "address",
          "name": "token",
          "type": "address"
        },
        {
          "internalType": "uint256",
          "name": "amount",
          "type": "uint256"
        },
        {
          "internalType": "bytes",
          "name": "data",
          "type": "bytes"
        }
      ],
      "name": "flashLoan",
      "outputs": [
        {
          "internalType": "bool",
          "name": "",
          "type": "bool"
        }
      ],
      "stateMutability": "nonpayable",
      "type": "function"
    },
    {
      "inputs": [
        {
          "internalType": "address",
          "name": "spender",
          "type": "address"
        },
        {
          "internalType": "uint256",
          "name": "addedValue",
          "type": "uint256"
        }
      ],
      "name": "increaseAllowance",
      "outputs": [
        {
          "internalType": "bool",
          "name": "",
          "type": "bool"
        }
      ],
      "stateMutability": "nonpayable",
      "type": "function"
    },
    {
      "inputs": [
        {
          "internalType": "address",
          "name": "token",
          "type": "address"
        }
      ],
      "name": "maxFlashLoan",
      "outputs": [
        {
          "internalType": "uint256",
          "name": "",
          "type": "uint256"
        }
      ],
      "stateMutability": "view",
      "type": "function"
    },
    {
      "inputs": [
        {
          "internalType": "address",
          "name": "to",
          "type": "address"
        },
        {
          "internalType": "uint256",
          "name": "amount",
          "type": "uint256"
        }
      ],
      "name": "mint",
      "outputs": [],
      "stateMutability": "nonpayable",
      "type": "function"
    },
    {
      "inputs": [],
      "name": "name",
      "outputs": [
        {
          "internalType": "string",
          "name": "",
          "type": "string"
        }
      ],
      "stateMutability": "view",
      "type": "function"
    },
    {
      "inputs": [],
      "name": "owner",
      "outputs": [
        {
          "internalType": "address",
          "name": "",
          "type": "address"
        }
      ],
      "stateMutability": "view",
      "type": "function"
    },
    {
      "inputs": [],
      "name": "pause",
      "outputs": [],
      "stateMutability": "nonpayable",
      "type": "function"
    },
    {
      "inputs": [],
      "name": "paused",
      "outputs": [
        {
          "internalType": "bool",
          "name": "",
          "type": "bool"
        }
      ],
      "stateMutability": "view",
      "type": "function"
    },
    {
      "inputs": [],
      "name": "renounceOwnership",
      "outputs": [],
      "stateMutability": "nonpayable",
      "type": "function"
    },
    {
      "inputs": [],
      "name": "symbol",
      "outputs": [
        {
          "internalType": "string",
          "name": "",
          "type": "string"
        }
      ],
      "stateMutability": "view",
      "type": "function"
    },
    {
      "inputs": [],
      "name": "totalSupply",
      "outputs": [
        {
          "internalType": "uint256",
          "name": "",
          "type": "uint256"
        }
      ],
      "stateMutability": "view",
      "type": "function"
    },
    {
      "inputs": [
        {
          "internalType": "address",
          "name": "to",
          "type": "address"
        },
        {
          "internalType": "uint256",
          "name": "amount",
          "type": "uint256"
        }
      ],
      "name": "transfer",
      "outputs": [
        {
          "internalType": "bool",
          "name": "",
          "type": "bool"
        }
      ],
      "stateMutability": "nonpayable",
      "type": "function"
    },
    {
      "inputs": [
        {
          "internalType": "address",
          "name": "from",
          "type": "address"
        },
        {
          "internalType": "address",
          "name": "to",
          "type": "address"
        },
        {
          "internalType": "uint256",
          "name": "amount",
          "type": "uint256"
        }
      ],
      "name": "transferFrom",
      "outputs": [
        {
          "internalType": "bool",
          "name": "",
          "type": "bool"
        }
      ],
      "stateMutability": "nonpayable",
      "type": "function"
    },
    {
      "inputs": [
        {
          "internalType": "address",
          "name": "newOwner",
          "type": "address"
        }
      ],
      "name": "transferOwnership",
      "outputs": [],
      "stateMutability": "nonpayable",
      "type": "function"
    },
    {
      "inputs": [],
      "name": "unpause",
      "outputs": [],
      "stateMutability": "nonpayable",
      "type": "function"
    }
  ],
  "bytecode": "0x60806040523480156200001157600080fd5b506040518060400160405280600781526020017f4d79546f6b656e000000000000000000000000000000000000000000000000008152506040518060400160405280600381526020017f4d5954000000000000000000000000000000000000000000000000000000000081525081600390816200008f91906200067e565b508060049081620000a191906200067e565b505050620000c4620000b86200012260201b60201c565b6200012a60201b60201c565b6000600560146101000a81548160ff0219169083151502179055506200011c33620000f4620001f060201b60201c565b600a620001029190620008f5565b600162000110919062000946565b620001f960201b60201c565b62000aef565b600033905090565b6000600560009054906101000a900473ffffffffffffffffffffffffffffffffffffffff16905081600560006101000a81548173ffffffffffffffffffffffffffffffffffffffff021916908373ffffffffffffffffffffffffffffffffffffffff1602179055508173ffffffffffffffffffffffffffffffffffffffff168173ffffffffffffffffffffffffffffffffffffffff167f8be0079c531659141344cd1fd0a4f28419497f9722a3daafe3b4186f6b6457e060405160405180910390a35050565b60006012905090565b600073ffffffffffffffffffffffffffffffffffffffff168273ffffffffffffffffffffffffffffffffffffffff16036200026b576040517f08c379a00000000000000000000000000000000000000000000000000000000081526004016200026290620009f2565b60405180910390fd5b6200027f600083836200036660201b60201c565b806002600082825462000293919062000a14565b92505081905550806000808473ffffffffffffffffffffffffffffffffffffffff1673ffffffffffffffffffffffffffffffffffffffff168152602001908152602001600020600082825401925050819055508173ffffffffffffffffffffffffffffffffffffffff16600073ffffffffffffffffffffffffffffffffffffffff167fddf252ad1be2c89b69c2b068fc378daa952ba7f163c4a11628f55a4df523b3ef8360405162000346919062000a60565b60405180910390a362000362600083836200038e60201b60201c565b5050565b620003766200039360201b60201c565b62000389838383620003e860201b60201c565b505050565b505050565b620003a3620003ed60201b60201c565b15620003e6576040517f08c379a0000000000000000000000000000000000000000000000000000000008152600401620003dd9062000acd565b60405180910390fd5b565b505050565b6000600560149054906101000a900460ff16905090565b600081519050919050565b7f4e487b7100000000000000000000000000000000000000000000000000000000600052604160045260246000fd5b7f4e487b7100000000000000000000000000000000000000000000000000000000600052602260045260246000fd5b600060028204905060018216806200048657607f821691505b6020821081036200049c576200049b6200043e565b5b50919050565b60008190508160005260206000209050919050565b60006020601f8301049050919050565b600082821b905092915050565b600060088302620005067fffffffffffffffffffffffffffffffffffffffffffffffffffffffffffffffff82620004c7565b620005128683620004c7565b95508019841693508086168417925050509392505050565b6000819050919050565b6000819050919050565b60006200055f6200055962000553846200052a565b62000534565b6200052a565b9050919050565b6000819050919050565b6200057b836200053e565b620005936200058a8262000566565b848454620004d4565b825550505050565b600090565b620005aa6200059b565b620005b781848462000570565b505050565b5b81811015620005df57620005d3600082620005a0565b600181019050620005bd565b5050565b601f8211156200062e57620005f881620004a2565b6200060384620004b7565b8101602085101562000613578190505b6200062b6200062285620004b7565b830182620005bc565b50505b505050565b600082821c905092915050565b6000620006536000198460080262000633565b1980831691505092915050565b60006200066e838362000640565b9150826002028217905092915050565b620006898262000404565b67ffffffffffffffff811115620006a557620006a46200040f565b5b620006b182546200046d565b620006be828285620005e3565b600060209050601f831160018114620006f65760008415620006e1578287015190505b620006ed858262000660565b8655506200075d565b601f1984166200070686620004a2565b60005b82811015620007305784890151825560018201915060208501945060208101905062000709565b868310156200075057848901516200074c601f89168262000640565b8355505b6001600288020188555050505b505050505050565b7f4e487b7100000000000000000000000000000000000000000000000000000000600052601160045260246000fd5b60008160011c9050919050565b6000808291508390505b6001851115620007f357808604811115620007cb57620007ca62000765565b5b6001851615620007db5780820291505b8081029050620007eb8562000794565b9450620007ab565b94509492505050565b6000826200080e5760019050620008e1565b816200081e5760009050620008e1565b8160018114620008375760028114620008425762000878565b6001915050620008e1565b60ff84111562000857576200085662000765565b5b8360020a91508482111562000871576200087062000765565b5b50620008e1565b5060208310610133831016604e8410600b8410161715620008b25782820a905083811115620008ac57620008ab62000765565b5b620008e1565b620008c18484846001620007a1565b92509050818404811115620008db57620008da62000765565b5b81810290505b9392505050565b600060ff82169050919050565b600062000902826200052a565b91506200090f83620008e8565b92506200093e7fffffffffffffffffffffffffffffffffffffffffffffffffffffffffffffffff8484620007fc565b905092915050565b600062000953826200052a565b915062000960836200052a565b925082820262000970816200052a565b915082820484148315176200098a576200098962000765565b5b5092915050565b600082825260208201905092915050565b7f45524332303a206d696e7420746f20746865207a65726f206164647265737300600082015250565b6000620009da601f8362000991565b9150620009e782620009a2565b602082019050919050565b6000602082019050818103600083015262000a0d81620009cb565b9050919050565b600062000a21826200052a565b915062000a2e836200052a565b925082820190508082111562000a495762000a4862000765565b5b92915050565b62000a5a816200052a565b82525050565b600060208201905062000a77600083018462000a4f565b92915050565b7f5061757361626c653a2070617573656400000000000000000000000000000000600082015250565b600062000ab560108362000991565b915062000ac28262000a7d565b602082019050919050565b6000602082019050818103600083015262000ae88162000aa6565b9050919050565b6125fb8062000aff6000396000f3fe608060405234801561001057600080fd5b506004361061014d5760003560e01c8063613255ab116100c357806395d89b411161007c57806395d89b411461037a578063a457c2d714610398578063a9059cbb146103c8578063d9d98ce4146103f8578063dd62ed3e14610428578063f2fde38b146104585761014d565b8063613255ab146102cc57806370a08231146102fc578063715018a61461032c57806379cc6790146103365780638456cb59146103525780638da5cb5b1461035c5761014d565b80633950935111610115578063395093511461020c5780633f4ba83a1461023c57806340c10f191461024657806342966c68146102625780635c975abb1461027e5780635cffe9de1461029c5761014d565b806306fdde0314610152578063095ea7b31461017057806318160ddd146101a057806323b872dd146101be578063313ce567146101ee575b600080fd5b61015a610474565b604051610167919061171b565b60405180910390f35b61018a600480360381019061018591906117db565b610506565b6040516101979190611836565b60405180910390f35b6101a8610529565b6040516101b59190611860565b60405180910390f35b6101d860048036038101906101d3919061187b565b610533565b6040516101e59190611836565b60405180910390f35b6101f6610562565b60405161020391906118ea565b60405180910390f35b610226600480360381019061022191906117db565b61056b565b6040516102339190611836565b60405180910390f35b6102446105a2565b005b610260600480360381019061025b91906117db565b6105b4565b005b61027c60048036038101906102779190611905565b6105ca565b005b6102866105de565b6040516102939190611836565b60405180910390f35b6102b660048036038101906102b191906119d5565b6105f5565b6040516102c39190611836565b60405180910390f35b6102e660048036038101906102e19190611a5d565b6107e2565b6040516102f39190611860565b60405180910390f35b61031660048036038101906103119190611a5d565b610859565b6040516103239190611860565b60405180910390f35b6103346108a1565b005b610350600480360381019061034b91906117db565b6108b5565b005b61035a6108d5565b005b6103646108e7565b6040516103719190611a99565b60405180910390f35b610382610911565b60405161038f919061171b565b60405180910390f35b6103b260048036038101906103ad91906117db565b6109a3565b6040516103bf9190611836565b60405180910390f35b6103e260048036038101906103dd91906117db565b610a1a565b6040516103ef9190611836565b60405180910390f35b610412600480360381019061040d91906117db565b610a3d565b60405161041f9190611860565b60405180910390f35b610442600480360381019061043d9190611ab4565b610abf565b60405161044f9190611860565b60405180910390f35b610472600480360381019061046d9190611a5d565b610b46565b005b60606003805461048390611b23565b80601f01602080910402602001604051908101604052809291908181526020018280546104af90611b23565b80156104fc5780601f106104d1576101008083540402835291602001916104fc565b820191906000526020600020905b8154815290600101906020018083116104df57829003601f168201915b5050505050905090565b600080610511610bc9565b905061051e818585610bd1565b600191505092915050565b6000600254905090565b60008061053e610bc9565b905061054b858285610d9a565b610556858585610e26565b60019150509392505050565b60006012905090565b600080610576610bc9565b90506105978185856105888589610abf565b6105929190611b83565b610bd1565b600191505092915050565b6105aa61109c565b6105b261111a565b565b6105bc61109c565b6105c6828261117d565b5050565b6105db6105d5610bc9565b826112d3565b50565b6000600560149054906101000a900460ff16905090565b6000610600856107e2565b841115610642576040517f08c379a000000000000000000000000000000000000000000000000000000000815260040161063990611c29565b60405180910390fd5b600061064e8686610a3d565b905061065a878661117d565b7f439148f0bbc682ca079e46d6e2c2f0c1e3b820f1a291b069d8882abf8cf18dd98773ffffffffffffffffffffffffffffffffffffffff166323e30c8b338989868a8a6040518763ffffffff1660e01b81526004016106be96959493929190611c96565b6020604051808303816000875af11580156106dd573d6000803e3d6000fd5b505050506040513d601f19601f820116820180604052508101906107019190611d28565b14610741576040517f08c379a000000000000000000000000000000000000000000000000000000000815260040161073890611dc7565b60405180910390fd5b600061074b6114a0565b90506107638830848961075e9190611b83565b610d9a565b600082148061079e5750600073ffffffffffffffffffffffffffffffffffffffff168173ffffffffffffffffffffffffffffffffffffffff16145b156107bd576107b88883886107b39190611b83565b6112d3565b6107d3565b6107c788876112d3565b6107d2888284610e26565b5b60019250505095945050505050565b60003073ffffffffffffffffffffffffffffffffffffffff168273ffffffffffffffffffffffffffffffffffffffff161461081e576000610852565b610826610529565b7fffffffffffffffffffffffffffffffffffffffffffffffffffffffffffffffff6108519190611de7565b5b9050919050565b60008060008373ffffffffffffffffffffffffffffffffffffffff1673ffffffffffffffffffffffffffffffffffffffff168152602001908152602001600020549050919050565b6108a961109c565b6108b360006114a5565b565b6108c7826108c1610bc9565b83610d9a565b6108d182826112d3565b5050565b6108dd61109c565b6108e561156b565b565b6000600560009054906101000a900473ffffffffffffffffffffffffffffffffffffffff16905090565b60606004805461092090611b23565b80601f016020809104026020016040519081016040528092919081815260200182805461094c90611b23565b80156109995780601f1061096e57610100808354040283529160200191610999565b820191906000526020600020905b81548152906001019060200180831161097c57829003601f168201915b5050505050905090565b6000806109ae610bc9565b905060006109bc8286610abf565b905083811015610a01576040517f08c379a00000000000000000000000000000000000000000000000000000000081526004016109f890611e8d565b60405180910390fd5b610a0e8286868403610bd1565b60019250505092915050565b600080610a25610bc9565b9050610a32818585610e26565b600191505092915050565b60003073ffffffffffffffffffffffffffffffffffffffff168373ffffffffffffffffffffffffffffffffffffffff1614610aad576040517f08c379a0000000000000000000000000000000000000000000000000000000008152600401610aa490611ef9565b60405180910390fd5b610ab783836115ce565b905092915050565b6000600160008473ffffffffffffffffffffffffffffffffffffffff1673ffffffffffffffffffffffffffffffffffffffff16815260200190815260200160002060008373ffffffffffffffffffffffffffffffffffffffff1673ffffffffffffffffffffffffffffffffffffffff16815260200190815260200160002054905092915050565b610b4e61109c565b600073ffffffffffffffffffffffffffffffffffffffff168173ffffffffffffffffffffffffffffffffffffffff1603610bbd576040517f08c379a0000000000000000000000000000000000000000000000000000000008152600401610bb490611f8b565b60405180910390fd5b610bc6816114a5565b50565b600033905090565b600073ffffffffffffffffffffffffffffffffffffffff168373ffffffffffffffffffffffffffffffffffffffff1603610c40576040517f08c379a0000000000000000000000000000000000000000000000000000000008152600401610c379061201d565b60405180910390fd5b600073ffffffffffffffffffffffffffffffffffffffff168273ffffffffffffffffffffffffffffffffffffffff1603610caf576040517f08c379a0000000000000000000000000000000000000000000000000000000008152600401610ca6906120af565b60405180910390fd5b80600160008573ffffffffffffffffffffffffffffffffffffffff1673ffffffffffffffffffffffffffffffffffffffff16815260200190815260200160002060008473ffffffffffffffffffffffffffffffffffffffff1673ffffffffffffffffffffffffffffffffffffffff168152602001908152602001600020819055508173ffffffffffffffffffffffffffffffffffffffff168373ffffffffffffffffffffffffffffffffffffffff167f8c5be1e5ebec7d5bd14f71427d1e84f3dd0314c0f7b2291e5b200ac8c7c3b92583604051610d8d9190611860565b60405180910390a3505050565b6000610da68484610abf565b90507fffffffffffffffffffffffffffffffffffffffffffffffffffffffffffffffff8114610e205781811015610e12576040517f08c379a0000000000000000000000000000000000000000000000000000000008152600401610e099061211b565b60405180910390fd5b610e1f8484848403610bd1565b5b50505050565b600073ffffffffffffffffffffffffffffffffffffffff168373ffffffffffffffffffffffffffffffffffffffff1603610e95576040517f08c379a0000000000000000000000000000000000000000000000000000000008152600401610e8c906121ad565b60405180910390fd5b600073ffffffffffffffffffffffffffffffffffffffff168273ffffffffffffffffffffffffffffffffffffffff1603610f04576040517f08c379a0000000000000000000000000000000000000000000000000000000008152600401610efb9061223f565b60405180910390fd5b610f0f8383836115d6565b60008060008573ffffffffffffffffffffffffffffffffffffffff1673ffffffffffffffffffffffffffffffffffffffff16815260200190815260200160002054905081811015610f95576040517f08c379a0000000000000000000000000000000000000000000000000000000008152600401610f8c906122d1565b60405180910390fd5b8181036000808673ffffffffffffffffffffffffffffffffffffffff1673ffffffffffffffffffffffffffffffffffffffff16815260200190815260200160002081905550816000808573ffffffffffffffffffffffffffffffffffffffff1673ffffffffffffffffffffffffffffffffffffffff168152602001908152602001600020600082825401925050819055508273ffffffffffffffffffffffffffffffffffffffff168473ffffffffffffffffffffffffffffffffffffffff167fddf252ad1be2c89b69c2b068fc378daa952ba7f163c4a11628f55a4df523b3ef846040516110839190611860565b60405180910390a36110968484846115ee565b50505050565b6110a4610bc9565b73ffffffffffffffffffffffffffffffffffffffff166110c26108e7565b73ffffffffffffffffffffffffffffffffffffffff1614611118576040517f08c379a000000000000000000000000000000000000000000000000000000000815260040161110f9061233d565b60405180910390fd5b565b6111226115f3565b6000600560146101000a81548160ff0219169083151502179055507f5db9ee0a495bf2e6ff9c91a7834c1ba4fdd244a5e8aa4e537bd38aeae4b073aa611166610bc9565b6040516111739190611a99565b60405180910390a1565b600073ffffffffffffffffffffffffffffffffffffffff168273ffffffffffffffffffffffffffffffffffffffff16036111ec576040517f08c379a00000000000000000000000000000000000000000000000000000000081526004016111e3906123a9565b60405180910390fd5b6111f8600083836115d6565b806002600082825461120a9190611b83565b92505081905550806000808473ffffffffffffffffffffffffffffffffffffffff1673ffffffffffffffffffffffffffffffffffffffff168152602001908152602001600020600082825401925050819055508173ffffffffffffffffffffffffffffffffffffffff16600073ffffffffffffffffffffffffffffffffffffffff167fddf252ad1be2c89b69c2b068fc378daa952ba7f163c4a11628f55a4df523b3ef836040516112bb9190611860565b60405180910390a36112cf600083836115ee565b5050565b600073ffffffffffffffffffffffffffffffffffffffff168273ffffffffffffffffffffffffffffffffffffffff1603611342576040517f08c379a00000000000000000000000000000000000000000000000000000000081526004016113399061243b565b60405180910390fd5b61134e826000836115d6565b60008060008473ffffffffffffffffffffffffffffffffffffffff1673ffffffffffffffffffffffffffffffffffffffff168152602001908152602001600020549050818110156113d4576040517f08c379a00000000000000000000000000000000000000000000000000000000081526004016113cb906124cd565b60405180910390fd5b8181036000808573ffffffffffffffffffffffffffffffffffffffff1673ffffffffffffffffffffffffffffffffffffffff1681526020019081526020016000208190555081600260008282540392505081905550600073ffffffffffffffffffffffffffffffffffffffff168373ffffffffffffffffffffffffffffffffffffffff167fddf252ad1be2c89b69c2b068fc378daa952ba7f163c4a11628f55a4df523b3ef846040516114879190611860565b60405180910390a361149b836000846115ee565b505050565b600090565b6000600560009054906101000a900473ffffffffffffffffffffffffffffffffffffffff16905081600560006101000a81548173ffffffffffffffffffffffffffffffffffffffff021916908373ffffffffffffffffffffffffffffffffffffffff1602179055508173ffffffffffffffffffffffffffffffffffffffff168173ffffffffffffffffffffffffffffffffffffffff167f8be0079c531659141344cd1fd0a4f28419497f9722a3daafe3b4186f6b6457e060405160405180910390a35050565b61157361163c565b6001600560146101000a81548160ff0219169083151502179055507f62e78cea01bee320cd4e420270b5ea74000d11b0c9f74754ebdbfc544b05a2586115b7610bc9565b6040516115c49190611a99565b60405180910390a1565b600092915050565b6115de61163c565b6115e9838383611686565b505050565b505050565b6115fb6105de565b61163a576040517f08c379a000000000000000000000000000000000000000000000000000000000815260040161163190612539565b60405180910390fd5b565b6116446105de565b15611684576040517f08c379a000000000000000000000000000000000000000000000000000000000815260040161167b906125a5565b60405180910390fd5b565b505050565b600081519050919050565b600082825260208201905092915050565b60005b838110156116c55780820151818401526020810190506116aa565b60008484015250505050565b6000601f19601f8301169050919050565b60006116ed8261168b565b6116f78185611696565b93506117078185602086016116a7565b611710816116d1565b840191505092915050565b6000602082019050818103600083015261173581846116e2565b905092915050565b600080fd5b600080fd5b600073ffffffffffffffffffffffffffffffffffffffff82169050919050565b600061177282611747565b9050919050565b61178281611767565b811461178d57600080fd5b50565b60008135905061179f81611779565b92915050565b6000819050919050565b6117b8816117a5565b81146117c357600080fd5b50565b6000813590506117d5816117af565b92915050565b600080604083850312156117f2576117f161173d565b5b600061180085828601611790565b9250506020611811858286016117c6565b9150509250929050565b60008115159050919050565b6118308161181b565b82525050565b600060208201905061184b6000830184611827565b92915050565b61185a816117a5565b82525050565b60006020820190506118756000830184611851565b92915050565b6000806000606084860312156118945761189361173d565b5b60006118a286828701611790565b93505060206118b386828701611790565b92505060406118c4868287016117c6565b9150509250925092565b600060ff82169050919050565b6118e4816118ce565b82525050565b60006020820190506118ff60008301846118db565b92915050565b60006020828403121561191b5761191a61173d565b5b6000611929848285016117c6565b91505092915050565b600061193d82611767565b9050919050565b61194d81611932565b811461195857600080fd5b50565b60008135905061196a81611944565b92915050565b600080fd5b600080fd5b600080fd5b60008083601f84011261199557611994611970565b5b8235905067ffffffffffffffff8111156119b2576119b1611975565b5b6020830191508360018202830111156119ce576119cd61197a565b5b9250929050565b6000806000806000608086880312156119f1576119f061173d565b5b60006119ff8882890161195b565b9550506020611a1088828901611790565b9450506040611a21888289016117c6565b935050606086013567ffffffffffffffff811115611a4257611a41611742565b5b611a4e8882890161197f565b92509250509295509295909350565b600060208284031215611a7357611a7261173d565b5b6000611a8184828501611790565b91505092915050565b611a9381611767565b82525050565b6000602082019050611aae6000830184611a8a565b92915050565b60008060408385031215611acb57611aca61173d565b5b6000611ad985828601611790565b9250506020611aea85828601611790565b9150509250929050565b7f4e487b7100000000000000000000000000000000000000000000000000000000600052602260045260246000fd5b60006002820490506001821680611b3b57607f821691505b602082108103611b4e57611b4d611af4565b5b50919050565b7f4e487b7100000000000000000000000000000000000000000000000000000000600052601160045260246000fd5b6000611b8e826117a5565b9150611b99836117a5565b9250828201905080821115611bb157611bb0611b54565b5b92915050565b7f4552433230466c6173684d696e743a20616d6f756e742065786365656473206d60008201527f6178466c6173684c6f616e000000000000000000000000000000000000000000602082015250565b6000611c13602b83611696565b9150611c1e82611bb7565b604082019050919050565b60006020820190508181036000830152611c4281611c06565b9050919050565b600082825260208201905092915050565b82818337600083830152505050565b6000611c758385611c49565b9350611c82838584611c5a565b611c8b836116d1565b840190509392505050565b600060a082019050611cab6000830189611a8a565b611cb86020830188611a8a565b611cc56040830187611851565b611cd26060830186611851565b8181036080830152611ce5818486611c69565b9050979650505050505050565b6000819050919050565b611d0581611cf2565b8114611d1057600080fd5b50565b600081519050611d2281611cfc565b92915050565b600060208284031215611d3e57611d3d61173d565b5b6000611d4c84828501611d13565b91505092915050565b7f4552433230466c6173684d696e743a20696e76616c69642072657475726e207660008201527f616c756500000000000000000000000000000000000000000000000000000000602082015250565b6000611db1602483611696565b9150611dbc82611d55565b604082019050919050565b60006020820190508181036000830152611de081611da4565b9050919050565b6000611df2826117a5565b9150611dfd836117a5565b9250828203905081811115611e1557611e14611b54565b5b92915050565b7f45524332303a2064656372656173656420616c6c6f77616e63652062656c6f7760008201527f207a65726f000000000000000000000000000000000000000000000000000000602082015250565b6000611e77602583611696565b9150611e8282611e1b565b604082019050919050565b60006020820190508181036000830152611ea681611e6a565b9050919050565b7f4552433230466c6173684d696e743a2077726f6e6720746f6b656e0000000000600082015250565b6000611ee3601b83611696565b9150611eee82611ead565b602082019050919050565b60006020820190508181036000830152611f1281611ed6565b9050919050565b7f4f776e61626c653a206e6577206f776e657220697320746865207a65726f206160008201527f6464726573730000000000000000000000000000000000000000000000000000602082015250565b6000611f75602683611696565b9150611f8082611f19565b604082019050919050565b60006020820190508181036000830152611fa481611f68565b9050919050565b7f45524332303a20617070726f76652066726f6d20746865207a65726f2061646460008201527f7265737300000000000000000000000000000000000000000000000000000000602082015250565b6000612007602483611696565b915061201282611fab565b604082019050919050565b6000602082019050818103600083015261203681611ffa565b9050919050565b7f45524332303a20617070726f766520746f20746865207a65726f20616464726560008201527f7373000000000000000000000000000000000000000000000000000000000000602082015250565b6000612099602283611696565b91506120a48261203d565b604082019050919050565b600060208201905081810360008301526120c88161208c565b9050919050565b7f45524332303a20696e73756666696369656e7420616c6c6f77616e6365000000600082015250565b6000612105601d83611696565b9150612110826120cf565b602082019050919050565b60006020820190508181036000830152612134816120f8565b9050919050565b7f45524332303a207472616e736665722066726f6d20746865207a65726f20616460008201527f6472657373000000000000000000000000000000000000000000000000000000602082015250565b6000612197602583611696565b91506121a28261213b565b604082019050919050565b600060208201905081810360008301526121c68161218a565b9050919050565b7f45524332303a207472616e7366657220746f20746865207a65726f206164647260008201527f6573730000000000000000000000000000000000000000000000000000000000602082015250565b6000612229602383611696565b9150612234826121cd565b604082019050919050565b600060208201905081810360008301526122588161221c565b9050919050565b7f45524332303a207472616e7366657220616d6f756e742065786365656473206260008201527f616c616e63650000000000000000000000000000000000000000000000000000602082015250565b60006122bb602683611696565b91506122c68261225f565b604082019050919050565b600060208201905081810360008301526122ea816122ae565b9050919050565b7f4f776e61626c653a2063616c6c6572206973206e6f7420746865206f776e6572600082015250565b6000612327602083611696565b9150612332826122f1565b602082019050919050565b600060208201905081810360008301526123568161231a565b9050919050565b7f45524332303a206d696e7420746f20746865207a65726f206164647265737300600082015250565b6000612393601f83611696565b915061239e8261235d565b602082019050919050565b600060208201905081810360008301526123c281612386565b9050919050565b7f45524332303a206275726e2066726f6d20746865207a65726f2061646472657360008201527f7300000000000000000000000000000000000000000000000000000000000000602082015250565b6000612425602183611696565b9150612430826123c9565b604082019050919050565b6000602082019050818103600083015261245481612418565b9050919050565b7f45524332303a206275726e20616d6f756e7420657863656564732062616c616e60008201527f6365000000000000000000000000000000000000000000000000000000000000602082015250565b60006124b7602283611696565b91506124c28261245b565b604082019050919050565b600060208201905081810360008301526124e6816124aa565b9050919050565b7f5061757361626c653a206e6f7420706175736564000000000000000000000000600082015250565b6000612523601483611696565b915061252e826124ed565b602082019050919050565b6000602082019050818103600083015261255281612516565b9050919050565b7f5061757361626c653a2070617573656400000000000000000000000000000000600082015250565b600061258f601083611696565b915061259a82612559565b602082019050919050565b600060208201905081810360008301526125be81612582565b905091905056fea264697066735822122055ea289941d965ea50c542b33cc67999e1f47981a6867b82bf21413b8a10403c64736f6c63430008130033",
  "linkReferences": {},
  "deployedLinkReferences": {}
}